:020000040000FA
:020000000528D1
:06000A00850183160313BB
:1000100000308600860106309F003F308500831245
:100020000030A4000508240603193F280130A5006C
:1000300005082506031942280230A60005082606F1
:10004000031945280330A7000508270603194D2882
:100050000430A90005082906031955280530B00009
:100060000508300603193828003086086420102857
:10007000003086006420FF308600642010280030A5
:1000800086001028FF30860010288030860064200B
:10009000860C6420061C4828102801308600642045
:1000A000860D6420861F502810288030860064202A
:1000B000860C6420061C5828013086006420860DBA
:1000C0006420861F5F2810281030A100D000A200F5
:1000D0006030A300A30B6A28A20B6828A10B662836
:0200E000080016
:00000001FF
