:020000040000FA
:020000000528D1
:06000A00850183160313BB
:1000100000308600860106309F003F308500831245
:100020000508003A031924280508013A031926286F
:100030000508023A031938280508033A0319492824
:100040000508043A03194C28860110280A30A40038
:100050002928083086004F20043086004F200230C7
:1000600086004F2001308600A403031D2928102894
:100070001430A5003B2801308600023086004F2056
:10008000043086004F2008308600A503031D3B285E
:1000900010280A30A40029280A30A5003B28053082
:1000A000A100E000A2003030A300A30B5528A20B52
:0800B0005328A10B51280800A0
:00000001FF
