:020000040000FA
:020000000528D1
:06000A00850183160313BB
:1000100006309F000730850000308600831286017D
:100020000530E0000A30E1000630E2000B30E3006A
:10003000051C1B281E28851C21283228851C2428E5
:100040002B28051D40283928442048204C205020CA
:10005000E20B24280F28442048204C205020E00B9D
:100060002B280F2850204C2048204420E30B322816
:100070000F2850204C2048204420E10B39280F281D
:100080000030860054200F280930860054200800D4
:1000900003308600542008000630860054200800F3
:1000A0000C30860054200F282030A0005030A100D2
:1000B0006030A200A20B5A28A10B5828A00B56288A
:0200C000080036
:00000001FF
