:020000040000FA
:020000000528D1
:06000A00850183160313BB
:1000100000308600860106309F003F308500831245
:100020000508003A031924280508013A031926286F
:100030000508023A031939280508033A03194C2820
:100040000508043A03194F28860110280A30A40035
:100050002928522008308600522004308600522081
:1000600002308600522001308600A403031D292897
:1000700010281430A5003C28522001308600522060
:10008000023086005220043086005220083086005C
:10009000A503031D3C2810280530A40029280A3098
:1000A000A5003C280530A100E000A2003030A300EC
:0E00B000A30B5828A20B5628A10B54280800B9
:00000001FF
