:020000040000FA
:020000000528D1
:06000A008501860183164A
:1000100003138600860106309F003F30850083125F
:100020000030A40005082406031946280130A50065
:1000300005082506031949280230A60005082606EA
:1000400003194D280330A700050827060319512876
:100050000430A80005082806031955280530A90012
:1000600005082906031959280630B000050830068E
:1000700003195D280730B10005083106031961280E
:100080000830B200050832060319652800308600E2
:100090001028053086006920102806308600692067
:1000A0001028183086006920102828308600692022
:1000B00010281D308600692010282E308600692007
:1000C00010281E308600692010282D3086006920F7
:1000D00010281030A1009000A2009000A300A30BF4
:0C00E0006F28A20B6D28A10B6B280800F4
:00000001FF
